{
  "_format": "hh-sol-artifact-1",
  "contractName": "RealEstate",
  "sourceName": "contracts/RealEstate.sol",
  "abi": [
    {
      "inputs": [],
      "stateMutability": "nonpayable",
      "type": "constructor"
    },
    {
      "anonymous": false,
      "inputs": [
        {
          "indexed": true,
          "internalType": "address",
          "name": "_owner",
          "type": "address"
        },
        {
          "indexed": false,
          "internalType": "uint256",
          "name": "_landID",
          "type": "uint256"
        }
      ],
      "name": "Add",
      "type": "event"
    },
    {
      "anonymous": false,
      "inputs": [
        {
          "indexed": true,
          "internalType": "address",
          "name": "owner",
          "type": "address"
        },
        {
          "indexed": true,
          "internalType": "address",
          "name": "approved",
          "type": "address"
        },
        {
          "indexed": true,
          "internalType": "uint256",
          "name": "tokenId",
          "type": "uint256"
        }
      ],
      "name": "Approval",
      "type": "event"
    },
    {
      "anonymous": false,
      "inputs": [
        {
          "indexed": true,
          "internalType": "address",
          "name": "owner",
          "type": "address"
        },
        {
          "indexed": true,
          "internalType": "address",
          "name": "operator",
          "type": "address"
        },
        {
          "indexed": false,
          "internalType": "bool",
          "name": "approved",
          "type": "bool"
        }
      ],
      "name": "ApprovalForAll",
      "type": "event"
    },
    {
      "anonymous": false,
      "inputs": [
        {
          "indexed": true,
          "internalType": "address",
          "name": "previousOwner",
          "type": "address"
        },
        {
          "indexed": true,
          "internalType": "address",
          "name": "newOwner",
          "type": "address"
        }
      ],
      "name": "OwnershipTransferred",
      "type": "event"
    },
    {
      "anonymous": false,
      "inputs": [
        {
          "indexed": true,
          "internalType": "address",
          "name": "from",
          "type": "address"
        },
        {
          "indexed": true,
          "internalType": "address",
          "name": "to",
          "type": "address"
        },
        {
          "indexed": true,
          "internalType": "uint256",
          "name": "tokenId",
          "type": "uint256"
        }
      ],
      "name": "Transfer",
      "type": "event"
    },
    {
      "inputs": [
        {
          "internalType": "string",
          "name": "_location",
          "type": "string"
        },
        {
          "internalType": "string",
          "name": "_name",
          "type": "string"
        },
        {
          "internalType": "string",
          "name": "_desc",
          "type": "string"
        },
        {
          "internalType": "uint256",
          "name": "_cost",
          "type": "uint256"
        }
      ],
      "name": "addLand",
      "outputs": [],
      "stateMutability": "nonpayable",
      "type": "function"
    },
    {
      "inputs": [
        {
          "internalType": "uint256",
          "name": "_landID",
          "type": "uint256"
        },
        {
          "internalType": "address",
          "name": "_approver",
          "type": "address"
        }
      ],
      "name": "agreeOnApprover",
      "outputs": [],
      "stateMutability": "nonpayable",
      "type": "function"
    },
    {
      "inputs": [
        {
          "internalType": "address",
          "name": "to",
          "type": "address"
        },
        {
          "internalType": "uint256",
          "name": "tokenId",
          "type": "uint256"
        }
      ],
      "name": "approve",
      "outputs": [],
      "stateMutability": "nonpayable",
      "type": "function"
    },
    {
      "inputs": [
        {
          "internalType": "uint256",
          "name": "_landID",
          "type": "uint256"
        }
      ],
      "name": "approveTransferAsBuyer",
      "outputs": [],
      "stateMutability": "payable",
      "type": "function"
    },
    {
      "inputs": [
        {
          "internalType": "address",
          "name": "owner",
          "type": "address"
        }
      ],
      "name": "balanceOf",
      "outputs": [
        {
          "internalType": "uint256",
          "name": "",
          "type": "uint256"
        }
      ],
      "stateMutability": "view",
      "type": "function"
    },
    {
      "inputs": [
        {
          "internalType": "uint256",
          "name": "tokenId",
          "type": "uint256"
        }
      ],
      "name": "getApproved",
      "outputs": [
        {
          "internalType": "address",
          "name": "",
          "type": "address"
        }
      ],
      "stateMutability": "view",
      "type": "function"
    },
    {
      "inputs": [
        {
          "internalType": "uint256",
          "name": "_landID",
          "type": "uint256"
        }
      ],
      "name": "getLand",
      "outputs": [
        {
          "internalType": "string",
          "name": "",
          "type": "string"
        },
        {
          "internalType": "string",
          "name": "",
          "type": "string"
        },
        {
          "internalType": "string",
          "name": "",
          "type": "string"
        },
        {
          "internalType": "uint256",
          "name": "",
          "type": "uint256"
        },
        {
          "internalType": "address",
          "name": "",
          "type": "address"
        },
        {
          "internalType": "uint256",
          "name": "",
          "type": "uint256"
        },
        {
          "internalType": "uint256",
          "name": "",
          "type": "uint256"
        }
      ],
      "stateMutability": "view",
      "type": "function"
    },
    {
      "inputs": [
        {
          "internalType": "address",
          "name": "owner",
          "type": "address"
        },
        {
          "internalType": "address",
          "name": "operator",
          "type": "address"
        }
      ],
      "name": "isApprovedForAll",
      "outputs": [
        {
          "internalType": "bool",
          "name": "",
          "type": "bool"
        }
      ],
      "stateMutability": "view",
      "type": "function"
    },
    {
      "inputs": [
        {
          "internalType": "uint256",
          "name": "",
          "type": "uint256"
        }
      ],
      "name": "lands",
      "outputs": [
        {
          "internalType": "string",
          "name": "location",
          "type": "string"
        },
        {
          "internalType": "string",
          "name": "name",
          "type": "string"
        },
        {
          "internalType": "string",
          "name": "desc",
          "type": "string"
        },
        {
          "internalType": "uint256",
          "name": "cost",
          "type": "uint256"
        },
        {
          "internalType": "uint256",
          "name": "landID",
          "type": "uint256"
        },
        {
          "internalType": "uint256",
          "name": "wantSell",
          "type": "uint256"
        },
        {
          "internalType": "address",
          "name": "approver",
          "type": "address"
        },
        {
          "internalType": "bool",
          "name": "buyerApproved",
          "type": "bool"
        },
        {
          "internalType": "bool",
          "name": "sellerApproved",
          "type": "bool"
        },
        {
          "internalType": "address",
          "name": "ownerAddress",
          "type": "address"
        }
      ],
      "stateMutability": "view",
      "type": "function"
    },
    {
      "inputs": [],
      "name": "name",
      "outputs": [
        {
          "internalType": "string",
          "name": "",
          "type": "string"
        }
      ],
      "stateMutability": "view",
      "type": "function"
    },
    {
      "inputs": [],
      "name": "owner",
      "outputs": [
        {
          "internalType": "address",
          "name": "",
          "type": "address"
        }
      ],
      "stateMutability": "view",
      "type": "function"
    },
    {
      "inputs": [
        {
          "internalType": "uint256",
          "name": "tokenId",
          "type": "uint256"
        }
      ],
      "name": "ownerOf",
      "outputs": [
        {
          "internalType": "address",
          "name": "",
          "type": "address"
        }
      ],
      "stateMutability": "view",
      "type": "function"
    },
    {
      "inputs": [
        {
          "internalType": "uint256",
          "name": "_landID",
          "type": "uint256"
        }
      ],
      "name": "removeApprover",
      "outputs": [],
      "stateMutability": "nonpayable",
      "type": "function"
    },
    {
      "inputs": [
        {
          "internalType": "uint256",
          "name": "_landID",
          "type": "uint256"
        }
      ],
      "name": "removeFromSale",
      "outputs": [],
      "stateMutability": "nonpayable",
      "type": "function"
    },
    {
      "inputs": [],
      "name": "renounceOwnership",
      "outputs": [],
      "stateMutability": "nonpayable",
      "type": "function"
    },
    {
      "inputs": [
        {
          "internalType": "address",
          "name": "from",
          "type": "address"
        },
        {
          "internalType": "address",
          "name": "to",
          "type": "address"
        },
        {
          "internalType": "uint256",
          "name": "tokenId",
          "type": "uint256"
        }
      ],
      "name": "safeTransferFrom",
      "outputs": [],
      "stateMutability": "nonpayable",
      "type": "function"
    },
    {
      "inputs": [
        {
          "internalType": "address",
          "name": "from",
          "type": "address"
        },
        {
          "internalType": "address",
          "name": "to",
          "type": "address"
        },
        {
          "internalType": "uint256",
          "name": "tokenId",
          "type": "uint256"
        },
        {
          "internalType": "bytes",
          "name": "data",
          "type": "bytes"
        }
      ],
      "name": "safeTransferFrom",
      "outputs": [],
      "stateMutability": "nonpayable",
      "type": "function"
    },
    {
      "inputs": [
        {
          "internalType": "address",
          "name": "operator",
          "type": "address"
        },
        {
          "internalType": "bool",
          "name": "approved",
          "type": "bool"
        }
      ],
      "name": "setApprovalForAll",
      "outputs": [],
      "stateMutability": "nonpayable",
      "type": "function"
    },
    {
      "inputs": [
        {
          "internalType": "bytes4",
          "name": "interfaceId",
          "type": "bytes4"
        }
      ],
      "name": "supportsInterface",
      "outputs": [
        {
          "internalType": "bool",
          "name": "",
          "type": "bool"
        }
      ],
      "stateMutability": "view",
      "type": "function"
    },
    {
      "inputs": [],
      "name": "symbol",
      "outputs": [
        {
          "internalType": "string",
          "name": "",
          "type": "string"
        }
      ],
      "stateMutability": "view",
      "type": "function"
    },
    {
      "inputs": [
        {
          "internalType": "uint256",
          "name": "index",
          "type": "uint256"
        }
      ],
      "name": "tokenByIndex",
      "outputs": [
        {
          "internalType": "uint256",
          "name": "",
          "type": "uint256"
        }
      ],
      "stateMutability": "view",
      "type": "function"
    },
    {
      "inputs": [
        {
          "internalType": "address",
          "name": "owner",
          "type": "address"
        },
        {
          "internalType": "uint256",
          "name": "index",
          "type": "uint256"
        }
      ],
      "name": "tokenOfOwnerByIndex",
      "outputs": [
        {
          "internalType": "uint256",
          "name": "",
          "type": "uint256"
        }
      ],
      "stateMutability": "view",
      "type": "function"
    },
    {
      "inputs": [
        {
          "internalType": "uint256",
          "name": "tokenId",
          "type": "uint256"
        }
      ],
      "name": "tokenURI",
      "outputs": [
        {
          "internalType": "string",
          "name": "",
          "type": "string"
        }
      ],
      "stateMutability": "view",
      "type": "function"
    },
    {
      "inputs": [],
      "name": "totalLandsCounter",
      "outputs": [
        {
          "internalType": "uint256",
          "name": "",
          "type": "uint256"
        }
      ],
      "stateMutability": "view",
      "type": "function"
    },
    {
      "inputs": [],
      "name": "totalSupply",
      "outputs": [
        {
          "internalType": "uint256",
          "name": "",
          "type": "uint256"
        }
      ],
      "stateMutability": "view",
      "type": "function"
    },
    {
      "inputs": [
        {
          "internalType": "address",
          "name": "from",
          "type": "address"
        },
        {
          "internalType": "address",
          "name": "to",
          "type": "address"
        },
        {
          "internalType": "uint256",
          "name": "tokenId",
          "type": "uint256"
        }
      ],
      "name": "transferFrom",
      "outputs": [],
      "stateMutability": "nonpayable",
      "type": "function"
    },
    {
      "inputs": [
        {
          "internalType": "address",
          "name": "newOwner",
          "type": "address"
        }
      ],
      "name": "transferOwnership",
      "outputs": [],
      "stateMutability": "nonpayable",
      "type": "function"
    }
  ],
  "bytecode": "0x60806040523480156200001157600080fd5b506040518060400160405280600a81526020017f5265616c457374617465000000000000000000000000000000000000000000008152506040518060400160405280600481526020017f4c414e440000000000000000000000000000000000000000000000000000000081525081600090816200008f91906200041a565b508060019081620000a191906200041a565b505050620000c4620000b8620000d260201b60201c565b620000da60201b60201c565b6000600b8190555062000501565b600033905090565b6000600a60009054906101000a900473ffffffffffffffffffffffffffffffffffffffff16905081600a60006101000a81548173ffffffffffffffffffffffffffffffffffffffff021916908373ffffffffffffffffffffffffffffffffffffffff1602179055508173ffffffffffffffffffffffffffffffffffffffff168173ffffffffffffffffffffffffffffffffffffffff167f8be0079c531659141344cd1fd0a4f28419497f9722a3daafe3b4186f6b6457e060405160405180910390a35050565b600081519050919050565b7f4e487b7100000000000000000000000000000000000000000000000000000000600052604160045260246000fd5b7f4e487b7100000000000000000000000000000000000000000000000000000000600052602260045260246000fd5b600060028204905060018216806200022257607f821691505b602082108103620002385762000237620001da565b5b50919050565b60008190508160005260206000209050919050565b60006020601f8301049050919050565b600082821b905092915050565b600060088302620002a27fffffffffffffffffffffffffffffffffffffffffffffffffffffffffffffffff8262000263565b620002ae868362000263565b95508019841693508086168417925050509392505050565b6000819050919050565b6000819050919050565b6000620002fb620002f5620002ef84620002c6565b620002d0565b620002c6565b9050919050565b6000819050919050565b6200031783620002da565b6200032f620003268262000302565b84845462000270565b825550505050565b600090565b6200034662000337565b620003538184846200030c565b505050565b5b818110156200037b576200036f6000826200033c565b60018101905062000359565b5050565b601f821115620003ca5762000394816200023e565b6200039f8462000253565b81016020851015620003af578190505b620003c7620003be8562000253565b83018262000358565b50505b505050565b600082821c905092915050565b6000620003ef60001984600802620003cf565b1980831691505092915050565b60006200040a8383620003dc565b9150826002028217905092915050565b6200042582620001a0565b67ffffffffffffffff811115620004415762000440620001ab565b5b6200044d825462000209565b6200045a8282856200037f565b600060209050601f8311600181146200049257600084156200047d578287015190505b620004898582620003fc565b865550620004f9565b601f198416620004a2866200023e565b60005b82811015620004cc57848901518255600182019150602085019450602081019050620004a5565b86831015620004ec5784890151620004e8601f891682620003dc565b8355505b6001600288020188555050505b505050505050565b614c6380620005116000396000f3fe60806040526004361061019c5760003560e01c806370a08231116100ec578063c87b56dd1161008a578063e349523811610064578063e3495238146105e4578063e985e9c51461060d578063f02dd53f1461064a578063f2fde38b1461068d5761019c565b8063c87b56dd14610538578063d931427214610575578063e261f1e51461059e5761019c565b80638da5cb5b116100c65780638da5cb5b1461049057806395d89b41146104bb578063a22cb465146104e6578063b88d4fde1461050f5761019c565b806370a0823114610411578063715018a61461044e57806382f557ae146104655761019c565b806323b872dd1161015957806342842e0e1161013357806342842e0e146103525780634f6ccce71461037b5780635138f19f146103b85780636352211e146103d45761019c565b806323b872dd146102c35780632f745c59146102ec57806332b9bd79146103295761019c565b806301ffc9a7146101a157806306fdde03146101de578063081812fc14610209578063095ea7b3146102465780631361a3b61461026f57806318160ddd14610298575b600080fd5b3480156101ad57600080fd5b506101c860048036038101906101c39190613359565b6106b6565b6040516101d591906133a1565b60405180910390f35b3480156101ea57600080fd5b506101f3610730565b604051610200919061344c565b60405180910390f35b34801561021557600080fd5b50610230600480360381019061022b91906134a4565b6107c2565b60405161023d9190613512565b60405180910390f35b34801561025257600080fd5b5061026d60048036038101906102689190613559565b610808565b005b34801561027b57600080fd5b50610296600480360381019061029191906134a4565b61091f565b005b3480156102a457600080fd5b506102ad6109fe565b6040516102ba91906135a8565b60405180910390f35b3480156102cf57600080fd5b506102ea60048036038101906102e591906135c3565b610a0b565b005b3480156102f857600080fd5b50610313600480360381019061030e9190613559565b610a6b565b60405161032091906135a8565b60405180910390f35b34801561033557600080fd5b50610350600480360381019061034b9190613616565b610b10565b005b34801561035e57600080fd5b50610379600480360381019061037491906135c3565b610cfd565b005b34801561038757600080fd5b506103a2600480360381019061039d91906134a4565b610d1d565b6040516103af91906135a8565b60405180910390f35b6103d260048036038101906103cd91906134a4565b610d8e565b005b3480156103e057600080fd5b506103fb60048036038101906103f691906134a4565b610ed7565b6040516104089190613512565b60405180910390f35b34801561041d57600080fd5b5061043860048036038101906104339190613656565b610f5d565b60405161044591906135a8565b60405180910390f35b34801561045a57600080fd5b50610463611014565b005b34801561047157600080fd5b5061047a611028565b60405161048791906135a8565b60405180910390f35b34801561049c57600080fd5b506104a561102e565b6040516104b29190613512565b60405180910390f35b3480156104c757600080fd5b506104d0611058565b6040516104dd919061344c565b60405180910390f35b3480156104f257600080fd5b5061050d600480360381019061050891906136af565b6110ea565b005b34801561051b57600080fd5b5061053660048036038101906105319190613824565b611100565b005b34801561054457600080fd5b5061055f600480360381019061055a91906134a4565b611162565b60405161056c919061344c565b60405180910390f35b34801561058157600080fd5b5061059c60048036038101906105979190613948565b6111ca565b005b3480156105aa57600080fd5b506105c560048036038101906105c091906134a4565b611410565b6040516105db9a99989796959493929190613a03565b60405180910390f35b3480156105f057600080fd5b5061060b600480360381019061060691906134a4565b611656565b005b34801561061957600080fd5b50610634600480360381019061062f9190613ab4565b611783565b60405161064191906133a1565b60405180910390f35b34801561065657600080fd5b50610671600480360381019061066c91906134a4565b611817565b6040516106849796959493929190613af4565b60405180910390f35b34801561069957600080fd5b506106b460048036038101906106af9190613656565b611b84565b005b60007f780e9d63000000000000000000000000000000000000000000000000000000007bffffffffffffffffffffffffffffffffffffffffffffffffffffffff1916827bffffffffffffffffffffffffffffffffffffffffffffffffffffffff19161480610729575061072882611c07565b5b9050919050565b60606000805461073f90613ba7565b80601f016020809104026020016040519081016040528092919081815260200182805461076b90613ba7565b80156107b85780601f1061078d576101008083540402835291602001916107b8565b820191906000526020600020905b81548152906001019060200180831161079b57829003601f168201915b5050505050905090565b60006107cd82611ce9565b6004600083815260200190815260200160002060009054906101000a900473ffffffffffffffffffffffffffffffffffffffff169050919050565b600061081382610ed7565b90508073ffffffffffffffffffffffffffffffffffffffff168373ffffffffffffffffffffffffffffffffffffffff1603610883576040517f08c379a000000000000000000000000000000000000000000000000000000000815260040161087a90613c4a565b60405180910390fd5b8073ffffffffffffffffffffffffffffffffffffffff166108a2611d34565b73ffffffffffffffffffffffffffffffffffffffff1614806108d157506108d0816108cb611d34565b611783565b5b610910576040517f08c379a000000000000000000000000000000000000000000000000000000000815260040161090790613cdc565b60405180910390fd5b61091a8383611d3c565b505050565b8061092981611df5565b610968576040517f08c379a000000000000000000000000000000000000000000000000000000000815260040161095f90613d48565b60405180910390fd5b3373ffffffffffffffffffffffffffffffffffffffff1661098882610ed7565b73ffffffffffffffffffffffffffffffffffffffff16146109de576040517f08c379a00000000000000000000000000000000000000000000000000000000081526004016109d590613dda565b60405180910390fd5b6000600c6000848152602001908152602001600020600501819055505050565b6000600880549050905090565b610a1c610a16611d34565b82611e36565b610a5b576040517f08c379a0000000000000000000000000000000000000000000000000000000008152600401610a5290613e6c565b60405180910390fd5b610a66838383611ecb565b505050565b6000610a7683610f5d565b8210610ab7576040517f08c379a0000000000000000000000000000000000000000000000000000000008152600401610aae90613efe565b60405180910390fd5b600660008473ffffffffffffffffffffffffffffffffffffffff1673ffffffffffffffffffffffffffffffffffffffff168152602001908152602001600020600083815260200190815260200160002054905092915050565b81610b1a81611df5565b610b59576040517f08c379a0000000000000000000000000000000000000000000000000000000008152600401610b5090613d48565b60405180910390fd5b3373ffffffffffffffffffffffffffffffffffffffff16610b7982610ed7565b73ffffffffffffffffffffffffffffffffffffffff1614610bcf576040517f08c379a0000000000000000000000000000000000000000000000000000000008152600401610bc690613dda565b60405180910390fd5b600073ffffffffffffffffffffffffffffffffffffffff16600c600085815260200190815260200160002060060160009054906101000a900473ffffffffffffffffffffffffffffffffffffffff1673ffffffffffffffffffffffffffffffffffffffff1614610c74576040517f08c379a0000000000000000000000000000000000000000000000000000000008152600401610c6b90613f6a565b60405180910390fd5b81600c600085815260200190815260200160002060060160006101000a81548173ffffffffffffffffffffffffffffffffffffffff021916908373ffffffffffffffffffffffffffffffffffffffff1602179055506001600c600085815260200190815260200160002060060160156101000a81548160ff021916908315150217905550505050565b610d1883838360405180602001604052806000815250611100565b505050565b6000610d276109fe565b8210610d68576040517f08c379a0000000000000000000000000000000000000000000000000000000008152600401610d5f90613ffc565b60405180910390fd5b60088281548110610d7c57610d7b61401c565b5b90600052602060002001549050919050565b3373ffffffffffffffffffffffffffffffffffffffff16600c600083815260200190815260200160002060060160009054906101000a900473ffffffffffffffffffffffffffffffffffffffff1673ffffffffffffffffffffffffffffffffffffffff1614610e32576040517f08c379a0000000000000000000000000000000000000000000000000000000008152600401610e29906140bd565b60405180910390fd5b60001515600c600083815260200190815260200160002060060160149054906101000a900460ff16151514610e9c576040517f08c379a0000000000000000000000000000000000000000000000000000000008152600401610e939061414f565b60405180910390fd5b6001600c600083815260200190815260200160002060060160146101000a81548160ff021916908315150217905550610ed4816121c4565b50565b600080610ee3836124cb565b9050600073ffffffffffffffffffffffffffffffffffffffff168173ffffffffffffffffffffffffffffffffffffffff1603610f54576040517f08c379a0000000000000000000000000000000000000000000000000000000008152600401610f4b906141bb565b60405180910390fd5b80915050919050565b60008073ffffffffffffffffffffffffffffffffffffffff168273ffffffffffffffffffffffffffffffffffffffff1603610fcd576040517f08c379a0000000000000000000000000000000000000000000000000000000008152600401610fc49061424d565b60405180910390fd5b600360008373ffffffffffffffffffffffffffffffffffffffff1673ffffffffffffffffffffffffffffffffffffffff168152602001908152602001600020549050919050565b61101c612508565b6110266000612586565b565b600b5481565b6000600a60009054906101000a900473ffffffffffffffffffffffffffffffffffffffff16905090565b60606001805461106790613ba7565b80601f016020809104026020016040519081016040528092919081815260200182805461109390613ba7565b80156110e05780601f106110b5576101008083540402835291602001916110e0565b820191906000526020600020905b8154815290600101906020018083116110c357829003601f168201915b5050505050905090565b6110fc6110f5611d34565b838361264c565b5050565b61111161110b611d34565b83611e36565b611150576040517f08c379a000000000000000000000000000000000000000000000000000000000815260040161114790613e6c565b60405180910390fd5b61115c848484846127b8565b50505050565b606061116d82611ce9565b6000611177612814565b9050600081511161119757604051806020016040528060008152506111c2565b806111a18461282b565b6040516020016111b29291906142a9565b6040516020818303038152906040525b915050919050565b6111d2612508565b600b60008154809291906111e5906142fc565b91905055506000600b54905060405180610140016040528086815260200185815260200184815260200183815260200182815260200160018152602001600073ffffffffffffffffffffffffffffffffffffffff1681526020016000151581526020016000151581526020013373ffffffffffffffffffffffffffffffffffffffff16815250600c6000838152602001908152602001600020600082015181600001908161129391906144f0565b5060208201518160010190816112a991906144f0565b5060408201518160020190816112bf91906144f0565b50606082015181600301556080820151816004015560a0820151816005015560c08201518160060160006101000a81548173ffffffffffffffffffffffffffffffffffffffff021916908373ffffffffffffffffffffffffffffffffffffffff16021790555060e08201518160060160146101000a81548160ff0219169083151502179055506101008201518160060160156101000a81548160ff0219169083151502179055506101208201518160070160006101000a81548173ffffffffffffffffffffffffffffffffffffffff021916908373ffffffffffffffffffffffffffffffffffffffff1602179055509050506113bb33826128f9565b3373ffffffffffffffffffffffffffffffffffffffff167f2728c9d3205d667bbc0eefdfeda366261b4d021949630c047f3e5834b30611ab8260405161140191906135a8565b60405180910390a25050505050565b600c60205280600052604060002060009150905080600001805461143390613ba7565b80601f016020809104026020016040519081016040528092919081815260200182805461145f90613ba7565b80156114ac5780601f10611481576101008083540402835291602001916114ac565b820191906000526020600020905b81548152906001019060200180831161148f57829003601f168201915b5050505050908060010180546114c190613ba7565b80601f01602080910402602001604051908101604052809291908181526020018280546114ed90613ba7565b801561153a5780601f1061150f5761010080835404028352916020019161153a565b820191906000526020600020905b81548152906001019060200180831161151d57829003601f168201915b50505050509080600201805461154f90613ba7565b80601f016020809104026020016040519081016040528092919081815260200182805461157b90613ba7565b80156115c85780601f1061159d576101008083540402835291602001916115c8565b820191906000526020600020905b8154815290600101906020018083116115ab57829003601f168201915b5050505050908060030154908060040154908060050154908060060160009054906101000a900473ffffffffffffffffffffffffffffffffffffffff16908060060160149054906101000a900460ff16908060060160159054906101000a900460ff16908060070160009054906101000a900473ffffffffffffffffffffffffffffffffffffffff1690508a565b600073ffffffffffffffffffffffffffffffffffffffff16600c600083815260200190815260200160002060060160009054906101000a900473ffffffffffffffffffffffffffffffffffffffff1673ffffffffffffffffffffffffffffffffffffffff16036116fb576040517f08c379a00000000000000000000000000000000000000000000000000000000081526004016116f29061460e565b60405180910390fd5b6000600c600083815260200190815260200160002060060160006101000a81548173ffffffffffffffffffffffffffffffffffffffff021916908373ffffffffffffffffffffffffffffffffffffffff1602179055506000600c600083815260200190815260200160002060060160156101000a81548160ff02191690831515021790555050565b6000600560008473ffffffffffffffffffffffffffffffffffffffff1673ffffffffffffffffffffffffffffffffffffffff16815260200190815260200160002060008373ffffffffffffffffffffffffffffffffffffffff1673ffffffffffffffffffffffffffffffffffffffff16815260200190815260200160002060009054906101000a900460ff16905092915050565b606080606060008060008061182b88611df5565b61186a576040517f08c379a000000000000000000000000000000000000000000000000000000000815260040161186190613d48565b60405180910390fd5b6000600c60008a81526020019081526020016000206040518061014001604052908160008201805461189b90613ba7565b80601f01602080910402602001604051908101604052809291908181526020018280546118c790613ba7565b80156119145780601f106118e957610100808354040283529160200191611914565b820191906000526020600020905b8154815290600101906020018083116118f757829003601f168201915b5050505050815260200160018201805461192d90613ba7565b80601f016020809104026020016040519081016040528092919081815260200182805461195990613ba7565b80156119a65780601f1061197b576101008083540402835291602001916119a6565b820191906000526020600020905b81548152906001019060200180831161198957829003601f168201915b505050505081526020016002820180546119bf90613ba7565b80601f01602080910402602001604051908101604052809291908181526020018280546119eb90613ba7565b8015611a385780601f10611a0d57610100808354040283529160200191611a38565b820191906000526020600020905b815481529060010190602001808311611a1b57829003601f168201915b505050505081526020016003820154815260200160048201548152602001600582015481526020016006820160009054906101000a900473ffffffffffffffffffffffffffffffffffffffff1673ffffffffffffffffffffffffffffffffffffffff1673ffffffffffffffffffffffffffffffffffffffff1681526020016006820160149054906101000a900460ff161515151581526020016006820160159054906101000a900460ff161515151581526020016007820160009054906101000a900473ffffffffffffffffffffffffffffffffffffffff1673ffffffffffffffffffffffffffffffffffffffff1673ffffffffffffffffffffffffffffffffffffffff168152505090508060000151816020015182604001518360600151611b608d610ed7565b85608001518660a00151975097509750975097509750975050919395979092949650565b611b8c612508565b600073ffffffffffffffffffffffffffffffffffffffff168173ffffffffffffffffffffffffffffffffffffffff1603611bfb576040517f08c379a0000000000000000000000000000000000000000000000000000000008152600401611bf2906146a0565b60405180910390fd5b611c0481612586565b50565b60007f80ac58cd000000000000000000000000000000000000000000000000000000007bffffffffffffffffffffffffffffffffffffffffffffffffffffffff1916827bffffffffffffffffffffffffffffffffffffffffffffffffffffffff19161480611cd257507f5b5e139f000000000000000000000000000000000000000000000000000000007bffffffffffffffffffffffffffffffffffffffffffffffffffffffff1916827bffffffffffffffffffffffffffffffffffffffffffffffffffffffff1916145b80611ce25750611ce182612b16565b5b9050919050565b611cf281611df5565b611d31576040517f08c379a0000000000000000000000000000000000000000000000000000000008152600401611d28906141bb565b60405180910390fd5b50565b600033905090565b816004600083815260200190815260200160002060006101000a81548173ffffffffffffffffffffffffffffffffffffffff021916908373ffffffffffffffffffffffffffffffffffffffff160217905550808273ffffffffffffffffffffffffffffffffffffffff16611daf83610ed7565b73ffffffffffffffffffffffffffffffffffffffff167f8c5be1e5ebec7d5bd14f71427d1e84f3dd0314c0f7b2291e5b200ac8c7c3b92560405160405180910390a45050565b60008073ffffffffffffffffffffffffffffffffffffffff16611e17836124cb565b73ffffffffffffffffffffffffffffffffffffffff1614159050919050565b600080611e4283610ed7565b90508073ffffffffffffffffffffffffffffffffffffffff168473ffffffffffffffffffffffffffffffffffffffff161480611e845750611e838185611783565b5b80611ec257508373ffffffffffffffffffffffffffffffffffffffff16611eaa846107c2565b73ffffffffffffffffffffffffffffffffffffffff16145b91505092915050565b8273ffffffffffffffffffffffffffffffffffffffff16611eeb82610ed7565b73ffffffffffffffffffffffffffffffffffffffff1614611f41576040517f08c379a0000000000000000000000000000000000000000000000000000000008152600401611f3890614732565b60405180910390fd5b600073ffffffffffffffffffffffffffffffffffffffff168273ffffffffffffffffffffffffffffffffffffffff1603611fb0576040517f08c379a0000000000000000000000000000000000000000000000000000000008152600401611fa7906147c4565b60405180910390fd5b611fbd8383836001612b80565b8273ffffffffffffffffffffffffffffffffffffffff16611fdd82610ed7565b73ffffffffffffffffffffffffffffffffffffffff1614612033576040517f08c379a000000000000000000000000000000000000000000000000000000000815260040161202a90614732565b60405180910390fd5b6004600082815260200190815260200160002060006101000a81549073ffffffffffffffffffffffffffffffffffffffff02191690556001600360008573ffffffffffffffffffffffffffffffffffffffff1673ffffffffffffffffffffffffffffffffffffffff168152602001908152602001600020600082825403925050819055506001600360008473ffffffffffffffffffffffffffffffffffffffff1673ffffffffffffffffffffffffffffffffffffffff16815260200190815260200160002060008282540192505081905550816002600083815260200190815260200160002060006101000a81548173ffffffffffffffffffffffffffffffffffffffff021916908373ffffffffffffffffffffffffffffffffffffffff160217905550808273ffffffffffffffffffffffffffffffffffffffff168473ffffffffffffffffffffffffffffffffffffffff167fddf252ad1be2c89b69c2b068fc378daa952ba7f163c4a11628f55a4df523b3ef60405160405180910390a46121bf8383836001612cde565b505050565b600c600082815260200190815260200160002060060160149054906101000a900460ff1680156122145750600c600082815260200190815260200160002060060160159054906101000a900460ff165b156124c857600061222482610ed7565b905061226f61223283610ed7565b600c600085815260200190815260200160002060060160009054906101000a900473ffffffffffffffffffffffffffffffffffffffff1684611ecb565b600c600083815260200190815260200160002060060160009054906101000a900473ffffffffffffffffffffffffffffffffffffffff16600c600084815260200190815260200160002060070160006101000a81548173ffffffffffffffffffffffffffffffffffffffff021916908373ffffffffffffffffffffffffffffffffffffffff1602179055506000600c6000848152602001908152602001600020600501819055506000600c600084815260200190815260200160002060060160006101000a81548173ffffffffffffffffffffffffffffffffffffffff021916908373ffffffffffffffffffffffffffffffffffffffff1602179055506000600c600084815260200190815260200160002060060160146101000a81548160ff0219169083151502179055506000600c600084815260200190815260200160002060060160156101000a81548160ff02191690831515021790555060008190508073ffffffffffffffffffffffffffffffffffffffff166108fc600c6000868152602001908152602001600020600301549081150290604051600060405180830381858888f1935050505015801561242b573d6000803e3d6000fd5b5082600c600085815260200190815260200160002060060160009054906101000a900473ffffffffffffffffffffffffffffffffffffffff1673ffffffffffffffffffffffffffffffffffffffff1661248385610ed7565b73ffffffffffffffffffffffffffffffffffffffff167fddf252ad1be2c89b69c2b068fc378daa952ba7f163c4a11628f55a4df523b3ef60405160405180910390a450505b50565b60006002600083815260200190815260200160002060009054906101000a900473ffffffffffffffffffffffffffffffffffffffff169050919050565b612510611d34565b73ffffffffffffffffffffffffffffffffffffffff1661252e61102e565b73ffffffffffffffffffffffffffffffffffffffff1614612584576040517f08c379a000000000000000000000000000000000000000000000000000000000815260040161257b90614830565b60405180910390fd5b565b6000600a60009054906101000a900473ffffffffffffffffffffffffffffffffffffffff16905081600a60006101000a81548173ffffffffffffffffffffffffffffffffffffffff021916908373ffffffffffffffffffffffffffffffffffffffff1602179055508173ffffffffffffffffffffffffffffffffffffffff168173ffffffffffffffffffffffffffffffffffffffff167f8be0079c531659141344cd1fd0a4f28419497f9722a3daafe3b4186f6b6457e060405160405180910390a35050565b8173ffffffffffffffffffffffffffffffffffffffff168373ffffffffffffffffffffffffffffffffffffffff16036126ba576040517f08c379a00000000000000000000000000000000000000000000000000000000081526004016126b19061489c565b60405180910390fd5b80600560008573ffffffffffffffffffffffffffffffffffffffff1673ffffffffffffffffffffffffffffffffffffffff16815260200190815260200160002060008473ffffffffffffffffffffffffffffffffffffffff1673ffffffffffffffffffffffffffffffffffffffff16815260200190815260200160002060006101000a81548160ff0219169083151502179055508173ffffffffffffffffffffffffffffffffffffffff168373ffffffffffffffffffffffffffffffffffffffff167f17307eab39ab6107e8899845ad3d59bd9653f200f220920489ca2b5937696c31836040516127ab91906133a1565b60405180910390a3505050565b6127c3848484611ecb565b6127cf84848484612ce4565b61280e576040517f08c379a00000000000000000000000000000000000000000000000000000000081526004016128059061492e565b60405180910390fd5b50505050565b606060405180602001604052806000815250905090565b60606000600161283a84612e6b565b01905060008167ffffffffffffffff811115612859576128586136f9565b5b6040519080825280601f01601f19166020018201604052801561288b5781602001600182028036833780820191505090505b509050600082602001820190505b6001156128ee578080600190039150507f3031323334353637383961626364656600000000000000000000000000000000600a86061a8153600a85816128e2576128e161494e565b5b04945060008503612899575b819350505050919050565b600073ffffffffffffffffffffffffffffffffffffffff168273ffffffffffffffffffffffffffffffffffffffff1603612968576040517f08c379a000000000000000000000000000000000000000000000000000000000815260040161295f906149c9565b60405180910390fd5b61297181611df5565b156129b1576040517f08c379a00000000000000000000000000000000000000000000000000000000081526004016129a890614a35565b60405180910390fd5b6129bf600083836001612b80565b6129c881611df5565b15612a08576040517f08c379a00000000000000000000000000000000000000000000000000000000081526004016129ff90614a35565b60405180910390fd5b6001600360008473ffffffffffffffffffffffffffffffffffffffff1673ffffffffffffffffffffffffffffffffffffffff16815260200190815260200160002060008282540192505081905550816002600083815260200190815260200160002060006101000a81548173ffffffffffffffffffffffffffffffffffffffff021916908373ffffffffffffffffffffffffffffffffffffffff160217905550808273ffffffffffffffffffffffffffffffffffffffff16600073ffffffffffffffffffffffffffffffffffffffff167fddf252ad1be2c89b69c2b068fc378daa952ba7f163c4a11628f55a4df523b3ef60405160405180910390a4612b12600083836001612cde565b5050565b60007f01ffc9a7000000000000000000000000000000000000000000000000000000007bffffffffffffffffffffffffffffffffffffffffffffffffffffffff1916827bffffffffffffffffffffffffffffffffffffffffffffffffffffffff1916149050919050565b612b8c84848484612fbe565b6001811115612bd0576040517f08c379a0000000000000000000000000000000000000000000000000000000008152600401612bc790614ac7565b60405180910390fd5b6000829050600073ffffffffffffffffffffffffffffffffffffffff168573ffffffffffffffffffffffffffffffffffffffff1603612c1757612c1281612fc4565b612c56565b8373ffffffffffffffffffffffffffffffffffffffff168573ffffffffffffffffffffffffffffffffffffffff1614612c5557612c54858261300d565b5b5b600073ffffffffffffffffffffffffffffffffffffffff168473ffffffffffffffffffffffffffffffffffffffff1603612c9857612c938161317a565b612cd7565b8473ffffffffffffffffffffffffffffffffffffffff168473ffffffffffffffffffffffffffffffffffffffff1614612cd657612cd5848261324b565b5b5b5050505050565b50505050565b6000612d058473ffffffffffffffffffffffffffffffffffffffff166132ca565b15612e5e578373ffffffffffffffffffffffffffffffffffffffff1663150b7a02612d2e611d34565b8786866040518563ffffffff1660e01b8152600401612d509493929190614b3c565b6020604051808303816000875af1925050508015612d8c57506040513d601f19601f82011682018060405250810190612d899190614b9d565b60015b612e0e573d8060008114612dbc576040519150601f19603f3d011682016040523d82523d6000602084013e612dc1565b606091505b506000815103612e06576040517f08c379a0000000000000000000000000000000000000000000000000000000008152600401612dfd9061492e565b60405180910390fd5b805181602001fd5b63150b7a0260e01b7bffffffffffffffffffffffffffffffffffffffffffffffffffffffff1916817bffffffffffffffffffffffffffffffffffffffffffffffffffffffff191614915050612e63565b600190505b949350505050565b600080600090507a184f03e93ff9f4daa797ed6e38ed64bf6a1f0100000000000000008310612ec9577a184f03e93ff9f4daa797ed6e38ed64bf6a1f0100000000000000008381612ebf57612ebe61494e565b5b0492506040810190505b6d04ee2d6d415b85acef81000000008310612f06576d04ee2d6d415b85acef81000000008381612efc57612efb61494e565b5b0492506020810190505b662386f26fc100008310612f3557662386f26fc100008381612f2b57612f2a61494e565b5b0492506010810190505b6305f5e1008310612f5e576305f5e1008381612f5457612f5361494e565b5b0492506008810190505b6127108310612f83576127108381612f7957612f7861494e565b5b0492506004810190505b60648310612fa65760648381612f9c57612f9b61494e565b5b0492506002810190505b600a8310612fb5576001810190505b80915050919050565b50505050565b6008805490506009600083815260200190815260200160002081905550600881908060018154018082558091505060019003906000526020600020016000909190919091505550565b6000600161301a84610f5d565b6130249190614bca565b9050600060076000848152602001908152602001600020549050818114613109576000600660008673ffffffffffffffffffffffffffffffffffffffff1673ffffffffffffffffffffffffffffffffffffffff168152602001908152602001600020600084815260200190815260200160002054905080600660008773ffffffffffffffffffffffffffffffffffffffff1673ffffffffffffffffffffffffffffffffffffffff168152602001908152602001600020600084815260200190815260200160002081905550816007600083815260200190815260200160002081905550505b6007600084815260200190815260200160002060009055600660008573ffffffffffffffffffffffffffffffffffffffff1673ffffffffffffffffffffffffffffffffffffffff16815260200190815260200160002060008381526020019081526020016000206000905550505050565b6000600160088054905061318e9190614bca565b90506000600960008481526020019081526020016000205490506000600883815481106131be576131bd61401c565b5b9060005260206000200154905080600883815481106131e0576131df61401c565b5b90600052602060002001819055508160096000838152602001908152602001600020819055506009600085815260200190815260200160002060009055600880548061322f5761322e614bfe565b5b6001900381819060005260206000200160009055905550505050565b600061325683610f5d565b905081600660008573ffffffffffffffffffffffffffffffffffffffff1673ffffffffffffffffffffffffffffffffffffffff168152602001908152602001600020600083815260200190815260200160002081905550806007600084815260200190815260200160002081905550505050565b6000808273ffffffffffffffffffffffffffffffffffffffff163b119050919050565b6000604051905090565b600080fd5b600080fd5b60007fffffffff0000000000000000000000000000000000000000000000000000000082169050919050565b61333681613301565b811461334157600080fd5b50565b6000813590506133538161332d565b92915050565b60006020828403121561336f5761336e6132f7565b5b600061337d84828501613344565b91505092915050565b60008115159050919050565b61339b81613386565b82525050565b60006020820190506133b66000830184613392565b92915050565b600081519050919050565b600082825260208201905092915050565b60005b838110156133f65780820151818401526020810190506133db565b60008484015250505050565b6000601f19601f8301169050919050565b600061341e826133bc565b61342881856133c7565b93506134388185602086016133d8565b61344181613402565b840191505092915050565b600060208201905081810360008301526134668184613413565b905092915050565b6000819050919050565b6134818161346e565b811461348c57600080fd5b50565b60008135905061349e81613478565b92915050565b6000602082840312156134ba576134b96132f7565b5b60006134c88482850161348f565b91505092915050565b600073ffffffffffffffffffffffffffffffffffffffff82169050919050565b60006134fc826134d1565b9050919050565b61350c816134f1565b82525050565b60006020820190506135276000830184613503565b92915050565b613536816134f1565b811461354157600080fd5b50565b6000813590506135538161352d565b92915050565b600080604083850312156135705761356f6132f7565b5b600061357e85828601613544565b925050602061358f8582860161348f565b9150509250929050565b6135a28161346e565b82525050565b60006020820190506135bd6000830184613599565b92915050565b6000806000606084860312156135dc576135db6132f7565b5b60006135ea86828701613544565b93505060206135fb86828701613544565b925050604061360c8682870161348f565b9150509250925092565b6000806040838503121561362d5761362c6132f7565b5b600061363b8582860161348f565b925050602061364c85828601613544565b9150509250929050565b60006020828403121561366c5761366b6132f7565b5b600061367a84828501613544565b91505092915050565b61368c81613386565b811461369757600080fd5b50565b6000813590506136a981613683565b92915050565b600080604083850312156136c6576136c56132f7565b5b60006136d485828601613544565b92505060206136e58582860161369a565b9150509250929050565b600080fd5b600080fd5b7f4e487b7100000000000000000000000000000000000000000000000000000000600052604160045260246000fd5b61373182613402565b810181811067ffffffffffffffff821117156137505761374f6136f9565b5b80604052505050565b60006137636132ed565b905061376f8282613728565b919050565b600067ffffffffffffffff82111561378f5761378e6136f9565b5b61379882613402565b9050602081019050919050565b82818337600083830152505050565b60006137c76137c284613774565b613759565b9050828152602081018484840111156137e3576137e26136f4565b5b6137ee8482856137a5565b509392505050565b600082601f83011261380b5761380a6136ef565b5b813561381b8482602086016137b4565b91505092915050565b6000806000806080858703121561383e5761383d6132f7565b5b600061384c87828801613544565b945050602061385d87828801613544565b935050604061386e8782880161348f565b925050606085013567ffffffffffffffff81111561388f5761388e6132fc565b5b61389b878288016137f6565b91505092959194509250565b600067ffffffffffffffff8211156138c2576138c16136f9565b5b6138cb82613402565b9050602081019050919050565b60006138eb6138e6846138a7565b613759565b905082815260208101848484011115613907576139066136f4565b5b6139128482856137a5565b509392505050565b600082601f83011261392f5761392e6136ef565b5b813561393f8482602086016138d8565b91505092915050565b60008060008060808587031215613962576139616132f7565b5b600085013567ffffffffffffffff8111156139805761397f6132fc565b5b61398c8782880161391a565b945050602085013567ffffffffffffffff8111156139ad576139ac6132fc565b5b6139b98782880161391a565b935050604085013567ffffffffffffffff8111156139da576139d96132fc565b5b6139e68782880161391a565b92505060606139f78782880161348f565b91505092959194509250565b6000610140820190508181036000830152613a1e818d613413565b90508181036020830152613a32818c613413565b90508181036040830152613a46818b613413565b9050613a55606083018a613599565b613a626080830189613599565b613a6f60a0830188613599565b613a7c60c0830187613503565b613a8960e0830186613392565b613a97610100830185613392565b613aa5610120830184613503565b9b9a5050505050505050505050565b60008060408385031215613acb57613aca6132f7565b5b6000613ad985828601613544565b9250506020613aea85828601613544565b9150509250929050565b600060e0820190508181036000830152613b0e818a613413565b90508181036020830152613b228189613413565b90508181036040830152613b368188613413565b9050613b456060830187613599565b613b526080830186613503565b613b5f60a0830185613599565b613b6c60c0830184613599565b98975050505050505050565b7f4e487b7100000000000000000000000000000000000000000000000000000000600052602260045260246000fd5b60006002820490506001821680613bbf57607f821691505b602082108103613bd257613bd1613b78565b5b50919050565b7f4552433732313a20617070726f76616c20746f2063757272656e74206f776e6560008201527f7200000000000000000000000000000000000000000000000000000000000000602082015250565b6000613c346021836133c7565b9150613c3f82613bd8565b604082019050919050565b60006020820190508181036000830152613c6381613c27565b9050919050565b7f4552433732313a20617070726f76652063616c6c6572206973206e6f7420746f60008201527f6b656e206f776e6572206f7220617070726f76656420666f7220616c6c000000602082015250565b6000613cc6603d836133c7565b9150613cd182613c6a565b604082019050919050565b60006020820190508181036000830152613cf581613cb9565b9050919050565b7f4c616e642077697468207468697320494420646f6573206e6f74206578697374600082015250565b6000613d326020836133c7565b9150613d3d82613cfc565b602082019050919050565b60006020820190508181036000830152613d6181613d25565b9050919050565b7f43616c6c6572206973206e6f7420746865206f776e6572206f6620746869732060008201527f6c616e6400000000000000000000000000000000000000000000000000000000602082015250565b6000613dc46024836133c7565b9150613dcf82613d68565b604082019050919050565b60006020820190508181036000830152613df381613db7565b9050919050565b7f4552433732313a2063616c6c6572206973206e6f7420746f6b656e206f776e6560008201527f72206f7220617070726f76656400000000000000000000000000000000000000602082015250565b6000613e56602d836133c7565b9150613e6182613dfa565b604082019050919050565b60006020820190508181036000830152613e8581613e49565b9050919050565b7f455243373231456e756d657261626c653a206f776e657220696e646578206f7560008201527f74206f6620626f756e6473000000000000000000000000000000000000000000602082015250565b6000613ee8602b836133c7565b9150613ef382613e8c565b604082019050919050565b60006020820190508181036000830152613f1781613edb565b9050919050565b7f417070726f76657220616c726561647920736574000000000000000000000000600082015250565b6000613f546014836133c7565b9150613f5f82613f1e565b602082019050919050565b60006020820190508181036000830152613f8381613f47565b9050919050565b7f455243373231456e756d657261626c653a20676c6f62616c20696e646578206f60008201527f7574206f6620626f756e64730000000000000000000000000000000000000000602082015250565b6000613fe6602c836133c7565b9150613ff182613f8a565b604082019050919050565b6000602082019050818103600083015261401581613fd9565b9050919050565b7f4e487b7100000000000000000000000000000000000000000000000000000000600052603260045260246000fd5b7f43616c6c6572206973206e6f74207468652061677265656420617070726f766560008201527f7220666f722074686973206c616e64207472616e736665720000000000000000602082015250565b60006140a76038836133c7565b91506140b28261404b565b604082019050919050565b600060208201905081810360008301526140d68161409a565b9050919050565b7f5472616e7366657220616c726561647920617070726f7665642062792074686560008201527f2062757965720000000000000000000000000000000000000000000000000000602082015250565b60006141396026836133c7565b9150614144826140dd565b604082019050919050565b600060208201905081810360008301526141688161412c565b9050919050565b7f4552433732313a20696e76616c696420746f6b656e2049440000000000000000600082015250565b60006141a56018836133c7565b91506141b08261416f565b602082019050919050565b600060208201905081810360008301526141d481614198565b9050919050565b7f4552433732313a2061646472657373207a65726f206973206e6f74206120766160008201527f6c6964206f776e65720000000000000000000000000000000000000000000000602082015250565b60006142376029836133c7565b9150614242826141db565b604082019050919050565b600060208201905081810360008301526142668161422a565b9050919050565b600081905092915050565b6000614283826133bc565b61428d818561426d565b935061429d8185602086016133d8565b80840191505092915050565b60006142b58285614278565b91506142c18284614278565b91508190509392505050565b7f4e487b7100000000000000000000000000000000000000000000000000000000600052601160045260246000fd5b60006143078261346e565b91507fffffffffffffffffffffffffffffffffffffffffffffffffffffffffffffffff8203614339576143386142cd565b5b600182019050919050565b60008190508160005260206000209050919050565b60006020601f8301049050919050565b600082821b905092915050565b6000600883026143a67fffffffffffffffffffffffffffffffffffffffffffffffffffffffffffffffff82614369565b6143b08683614369565b95508019841693508086168417925050509392505050565b6000819050919050565b60006143ed6143e86143e38461346e565b6143c8565b61346e565b9050919050565b6000819050919050565b614407836143d2565b61441b614413826143f4565b848454614376565b825550505050565b600090565b614430614423565b61443b8184846143fe565b505050565b5b8181101561445f57614454600082614428565b600181019050614441565b5050565b601f8211156144a45761447581614344565b61447e84614359565b8101602085101561448d578190505b6144a161449985614359565b830182614440565b50505b505050565b600082821c905092915050565b60006144c7600019846008026144a9565b1980831691505092915050565b60006144e083836144b6565b9150826002028217905092915050565b6144f9826133bc565b67ffffffffffffffff811115614512576145116136f9565b5b61451c8254613ba7565b614527828285614463565b600060209050601f83116001811461455a5760008415614548578287015190505b61455285826144d4565b8655506145ba565b601f19841661456886614344565b60005b828110156145905784890151825560018201915060208501945060208101905061456b565b868310156145ad57848901516145a9601f8916826144b6565b8355505b6001600288020188555050505b505050505050565b7f417070726f766572206973206e756c6c20616c72656164792100000000000000600082015250565b60006145f86019836133c7565b9150614603826145c2565b602082019050919050565b60006020820190508181036000830152614627816145eb565b9050919050565b7f4f776e61626c653a206e6577206f776e657220697320746865207a65726f206160008201527f6464726573730000000000000000000000000000000000000000000000000000602082015250565b600061468a6026836133c7565b91506146958261462e565b604082019050919050565b600060208201905081810360008301526146b98161467d565b9050919050565b7f4552433732313a207472616e736665722066726f6d20696e636f72726563742060008201527f6f776e6572000000000000000000000000000000000000000000000000000000602082015250565b600061471c6025836133c7565b9150614727826146c0565b604082019050919050565b6000602082019050818103600083015261474b8161470f565b9050919050565b7f4552433732313a207472616e7366657220746f20746865207a65726f2061646460008201527f7265737300000000000000000000000000000000000000000000000000000000602082015250565b60006147ae6024836133c7565b91506147b982614752565b604082019050919050565b600060208201905081810360008301526147dd816147a1565b9050919050565b7f4f776e61626c653a2063616c6c6572206973206e6f7420746865206f776e6572600082015250565b600061481a6020836133c7565b9150614825826147e4565b602082019050919050565b600060208201905081810360008301526148498161480d565b9050919050565b7f4552433732313a20617070726f766520746f2063616c6c657200000000000000600082015250565b60006148866019836133c7565b915061489182614850565b602082019050919050565b600060208201905081810360008301526148b581614879565b9050919050565b7f4552433732313a207472616e7366657220746f206e6f6e20455243373231526560008201527f63656976657220696d706c656d656e7465720000000000000000000000000000602082015250565b60006149186032836133c7565b9150614923826148bc565b604082019050919050565b600060208201905081810360008301526149478161490b565b9050919050565b7f4e487b7100000000000000000000000000000000000000000000000000000000600052601260045260246000fd5b7f4552433732313a206d696e7420746f20746865207a65726f2061646472657373600082015250565b60006149b36020836133c7565b91506149be8261497d565b602082019050919050565b600060208201905081810360008301526149e2816149a6565b9050919050565b7f4552433732313a20746f6b656e20616c7265616479206d696e74656400000000600082015250565b6000614a1f601c836133c7565b9150614a2a826149e9565b602082019050919050565b60006020820190508181036000830152614a4e81614a12565b9050919050565b7f455243373231456e756d657261626c653a20636f6e736563757469766520747260008201527f616e7366657273206e6f7420737570706f727465640000000000000000000000602082015250565b6000614ab16035836133c7565b9150614abc82614a55565b604082019050919050565b60006020820190508181036000830152614ae081614aa4565b9050919050565b600081519050919050565b600082825260208201905092915050565b6000614b0e82614ae7565b614b188185614af2565b9350614b288185602086016133d8565b614b3181613402565b840191505092915050565b6000608082019050614b516000830187613503565b614b5e6020830186613503565b614b6b6040830185613599565b8181036060830152614b7d8184614b03565b905095945050505050565b600081519050614b978161332d565b92915050565b600060208284031215614bb357614bb26132f7565b5b6000614bc184828501614b88565b91505092915050565b6000614bd58261346e565b9150614be08361346e565b9250828203905081811115614bf857614bf76142cd565b5b92915050565b7f4e487b7100000000000000000000000000000000000000000000000000000000600052603160045260246000fdfea264697066735822122058aa310d8538b95c5a4ebe244a51ffc2b5af51614a75c3157a4f9473b98835dc64736f6c63430008130033",
  "linkReferences": {},
  "deployedLinkReferences": {}
}